{
  "_format": "hh-sol-artifact-1",
  "contractName": "SparkAccount",
  "sourceName": "contracts/SparkAccount.sol",
  "abi": [
    {
      "inputs": [
        {
          "internalType": "contract IEntryPoint",
          "name": "anEntryPoint",
          "type": "address"
        }
      ],
      "stateMutability": "nonpayable",
      "type": "constructor"
    },
    {
      "anonymous": false,
      "inputs": [
        {
          "indexed": false,
          "internalType": "address",
          "name": "previousAdmin",
          "type": "address"
        },
        {
          "indexed": false,
          "internalType": "address",
          "name": "newAdmin",
          "type": "address"
        }
      ],
      "name": "AdminChanged",
      "type": "event"
    },
    {
      "anonymous": false,
      "inputs": [
        {
          "indexed": true,
          "internalType": "address",
          "name": "beacon",
          "type": "address"
        }
      ],
      "name": "BeaconUpgraded",
      "type": "event"
    },
    {
      "anonymous": false,
      "inputs": [
        {
          "indexed": false,
          "internalType": "uint8",
          "name": "version",
          "type": "uint8"
        }
      ],
      "name": "Initialized",
      "type": "event"
    },
    {
      "anonymous": false,
      "inputs": [
        {
          "indexed": true,
          "internalType": "contract IEntryPoint",
          "name": "entryPoint",
          "type": "address"
        },
        {
          "indexed": true,
          "internalType": "string",
          "name": "owner",
          "type": "string"
        }
      ],
      "name": "SimpleAccountInitialized",
      "type": "event"
    },
    {
      "anonymous": false,
      "inputs": [
        {
          "indexed": true,
          "internalType": "address",
          "name": "implementation",
          "type": "address"
        }
      ],
      "name": "Upgraded",
      "type": "event"
    },
    {
      "inputs": [],
      "name": "addDeposit",
      "outputs": [],
      "stateMutability": "payable",
      "type": "function"
    },
    {
      "inputs": [],
      "name": "customerNo",
      "outputs": [
        {
          "internalType": "string",
          "name": "",
          "type": "string"
        }
      ],
      "stateMutability": "view",
      "type": "function"
    },
    {
      "inputs": [],
      "name": "entryPoint",
      "outputs": [
        {
          "internalType": "contract IEntryPoint",
          "name": "",
          "type": "address"
        }
      ],
      "stateMutability": "view",
      "type": "function"
    },
    {
      "inputs": [
        {
          "internalType": "address",
          "name": "dest",
          "type": "address"
        },
        {
          "internalType": "uint256",
          "name": "value",
          "type": "uint256"
        },
        {
          "internalType": "bytes",
          "name": "func",
          "type": "bytes"
        }
      ],
      "name": "execute",
      "outputs": [],
      "stateMutability": "nonpayable",
      "type": "function"
    },
    {
      "inputs": [
        {
          "internalType": "address[]",
          "name": "dest",
          "type": "address[]"
        },
        {
          "internalType": "uint256[]",
          "name": "value",
          "type": "uint256[]"
        },
        {
          "internalType": "bytes[]",
          "name": "func",
          "type": "bytes[]"
        }
      ],
      "name": "executeBatch",
      "outputs": [],
      "stateMutability": "nonpayable",
      "type": "function"
    },
    {
      "inputs": [],
      "name": "getDeposit",
      "outputs": [
        {
          "internalType": "uint256",
          "name": "",
          "type": "uint256"
        }
      ],
      "stateMutability": "view",
      "type": "function"
    },
    {
      "inputs": [],
      "name": "getNonce",
      "outputs": [
        {
          "internalType": "uint256",
          "name": "",
          "type": "uint256"
        }
      ],
      "stateMutability": "view",
      "type": "function"
    },
    {
      "inputs": [
        {
          "internalType": "string",
          "name": "_customerNo",
          "type": "string"
        }
      ],
      "name": "initialize",
      "outputs": [],
      "stateMutability": "nonpayable",
      "type": "function"
    },
    {
      "inputs": [
        {
          "internalType": "address",
          "name": "",
          "type": "address"
        },
        {
          "internalType": "address",
          "name": "",
          "type": "address"
        },
        {
          "internalType": "uint256[]",
          "name": "",
          "type": "uint256[]"
        },
        {
          "internalType": "uint256[]",
          "name": "",
          "type": "uint256[]"
        },
        {
          "internalType": "bytes",
          "name": "",
          "type": "bytes"
        }
      ],
      "name": "onERC1155BatchReceived",
      "outputs": [
        {
          "internalType": "bytes4",
          "name": "",
          "type": "bytes4"
        }
      ],
      "stateMutability": "pure",
      "type": "function"
    },
    {
      "inputs": [
        {
          "internalType": "address",
          "name": "",
          "type": "address"
        },
        {
          "internalType": "address",
          "name": "",
          "type": "address"
        },
        {
          "internalType": "uint256",
          "name": "",
          "type": "uint256"
        },
        {
          "internalType": "uint256",
          "name": "",
          "type": "uint256"
        },
        {
          "internalType": "bytes",
          "name": "",
          "type": "bytes"
        }
      ],
      "name": "onERC1155Received",
      "outputs": [
        {
          "internalType": "bytes4",
          "name": "",
          "type": "bytes4"
        }
      ],
      "stateMutability": "pure",
      "type": "function"
    },
    {
      "inputs": [
        {
          "internalType": "address",
          "name": "",
          "type": "address"
        },
        {
          "internalType": "address",
          "name": "",
          "type": "address"
        },
        {
          "internalType": "uint256",
          "name": "",
          "type": "uint256"
        },
        {
          "internalType": "bytes",
          "name": "",
          "type": "bytes"
        }
      ],
      "name": "onERC721Received",
      "outputs": [
        {
          "internalType": "bytes4",
          "name": "",
          "type": "bytes4"
        }
      ],
      "stateMutability": "pure",
      "type": "function"
    },
    {
      "inputs": [],
      "name": "owner",
      "outputs": [
        {
          "internalType": "address",
          "name": "",
          "type": "address"
        }
      ],
      "stateMutability": "view",
      "type": "function"
    },
    {
      "inputs": [],
      "name": "proxiableUUID",
      "outputs": [
        {
          "internalType": "bytes32",
          "name": "",
          "type": "bytes32"
        }
      ],
      "stateMutability": "view",
      "type": "function"
    },
    {
      "inputs": [
        {
          "internalType": "address",
          "name": "_owner",
          "type": "address"
        }
      ],
      "name": "setOwner",
      "outputs": [],
      "stateMutability": "nonpayable",
      "type": "function"
    },
    {
      "inputs": [
        {
          "internalType": "bytes4",
          "name": "interfaceId",
          "type": "bytes4"
        }
      ],
      "name": "supportsInterface",
      "outputs": [
        {
          "internalType": "bool",
          "name": "",
          "type": "bool"
        }
      ],
      "stateMutability": "view",
      "type": "function"
    },
    {
      "inputs": [
        {
          "internalType": "address",
          "name": "",
          "type": "address"
        },
        {
          "internalType": "address",
          "name": "",
          "type": "address"
        },
        {
          "internalType": "address",
          "name": "",
          "type": "address"
        },
        {
          "internalType": "uint256",
          "name": "",
          "type": "uint256"
        },
        {
          "internalType": "bytes",
          "name": "",
          "type": "bytes"
        },
        {
          "internalType": "bytes",
          "name": "",
          "type": "bytes"
        }
      ],
      "name": "tokensReceived",
      "outputs": [],
      "stateMutability": "pure",
      "type": "function"
    },
    {
      "inputs": [
        {
          "internalType": "address",
          "name": "newImplementation",
          "type": "address"
        }
      ],
      "name": "upgradeTo",
      "outputs": [],
      "stateMutability": "nonpayable",
      "type": "function"
    },
    {
      "inputs": [
        {
          "internalType": "address",
          "name": "newImplementation",
          "type": "address"
        },
        {
          "internalType": "bytes",
          "name": "data",
          "type": "bytes"
        }
      ],
      "name": "upgradeToAndCall",
      "outputs": [],
      "stateMutability": "payable",
      "type": "function"
    },
    {
      "inputs": [
        {
          "components": [
            {
              "internalType": "address",
              "name": "sender",
              "type": "address"
            },
            {
              "internalType": "uint256",
              "name": "nonce",
              "type": "uint256"
            },
            {
              "internalType": "bytes",
              "name": "initCode",
              "type": "bytes"
            },
            {
              "internalType": "bytes",
              "name": "callData",
              "type": "bytes"
            },
            {
              "internalType": "uint256",
              "name": "callGasLimit",
              "type": "uint256"
            },
            {
              "internalType": "uint256",
              "name": "verificationGasLimit",
              "type": "uint256"
            },
            {
              "internalType": "uint256",
              "name": "preVerificationGas",
              "type": "uint256"
            },
            {
              "internalType": "uint256",
              "name": "maxFeePerGas",
              "type": "uint256"
            },
            {
              "internalType": "uint256",
              "name": "maxPriorityFeePerGas",
              "type": "uint256"
            },
            {
              "internalType": "bytes",
              "name": "paymasterAndData",
              "type": "bytes"
            },
            {
              "internalType": "bytes",
              "name": "signature",
              "type": "bytes"
            }
          ],
          "internalType": "struct UserOperation",
          "name": "userOp",
          "type": "tuple"
        },
        {
          "internalType": "bytes32",
          "name": "userOpHash",
          "type": "bytes32"
        },
        {
          "internalType": "uint256",
          "name": "missingAccountFunds",
          "type": "uint256"
        }
      ],
      "name": "validateUserOp",
      "outputs": [
        {
          "internalType": "uint256",
          "name": "validationData",
          "type": "uint256"
        }
      ],
      "stateMutability": "nonpayable",
      "type": "function"
    },
    {
      "inputs": [
        {
          "internalType": "address payable",
          "name": "withdrawAddress",
          "type": "address"
        },
        {
          "internalType": "uint256",
          "name": "amount",
          "type": "uint256"
        }
      ],
      "name": "withdrawDepositTo",
      "outputs": [],
      "stateMutability": "nonpayable",
      "type": "function"
    },
    {
      "stateMutability": "payable",
      "type": "receive"
    }
  ],
  "bytecode": "0x60c0604052306080523480156200001557600080fd5b5060405162002ad738038062002ad7833981016040819052620000389162000117565b6001600160a01b03811660a0526200004f62000056565b5062000149565b600054610100900460ff1615620000c35760405162461bcd60e51b815260206004820152602760248201527f496e697469616c697a61626c653a20636f6e747261637420697320696e697469604482015266616c697a696e6760c81b606482015260840160405180910390fd5b60005460ff9081161462000115576000805460ff191660ff9081179091556040519081527f7f26b83ff96e1f2b6a682f133852f6798a09c465da95921460cefb38474024989060200160405180910390a15b565b6000602082840312156200012a57600080fd5b81516001600160a01b03811681146200014257600080fd5b9392505050565b60805160a05161291b620001bc6000396000818161037f01528181610a5101528181610aff01528181610f1b01528181610fd90152818161144d0152818161163401526118220152600081816106850152818161073501528181610bbb01528181610c6b0152610db4015261291b6000f3fe6080604052600436106101625760003560e01c806352d1902d116100c0578063c399ec8811610074578063d3217c6b11610059578063d3217c6b14610435578063f23a6e6114610457578063f62d18881461049d57600080fd5b8063c399ec881461040b578063d087d2881461042057600080fd5b8063b0d691fe116100a5578063b0d691fe14610370578063b61d27f6146103a3578063bc197c81146103c357600080fd5b806352d1902d146103095780638da5cb5b1461031e57600080fd5b80633a871cdd116101175780634a58db19116100fc5780634a58db19146102ce5780634d44560d146102d65780634f1ef286146102f657600080fd5b80633a871cdd1461028057806347e1da2a146102ae57600080fd5b806313af40351161014857806313af4035146101ca578063150b7a02146101ea5780633659cfe61461026057600080fd5b806223de291461016e57806301ffc9a71461019557600080fd5b3661016957005b600080fd5b34801561017a57600080fd5b50610193610189366004611eed565b5050505050505050565b005b3480156101a157600080fd5b506101b56101b0366004611f9e565b6104bd565b60405190151581526020015b60405180910390f35b3480156101d657600080fd5b506101936101e5366004611fe0565b6105a2565b3480156101f657600080fd5b5061022f610205366004611ffd565b7f150b7a020000000000000000000000000000000000000000000000000000000095945050505050565b6040517fffffffff0000000000000000000000000000000000000000000000000000000090911681526020016101c1565b34801561026c57600080fd5b5061019361027b366004611fe0565b61066e565b34801561028c57600080fd5b506102a061029b366004612070565b610873565b6040519081526020016101c1565b3480156102ba57600080fd5b506101936102c9366004612109565b610899565b610193610a4f565b3480156102e257600080fd5b506101936102f13660046121a3565b610af5565b610193610304366004612292565b610ba4565b34801561031557600080fd5b506102a0610d9a565b34801561032a57600080fd5b5060025461034b9073ffffffffffffffffffffffffffffffffffffffff1681565b60405173ffffffffffffffffffffffffffffffffffffffff90911681526020016101c1565b34801561037c57600080fd5b507f000000000000000000000000000000000000000000000000000000000000000061034b565b3480156103af57600080fd5b506101936103be3660046122f6565b610e86565b3480156103cf57600080fd5b5061022f6103de366004612352565b7fbc197c810000000000000000000000000000000000000000000000000000000098975050505050505050565b34801561041757600080fd5b506102a0610ed5565b34801561042c57600080fd5b506102a0610f8c565b34801561044157600080fd5b5061044a611008565b6040516101c1919061241c565b34801561046357600080fd5b5061022f61047236600461246d565b7ff23a6e61000000000000000000000000000000000000000000000000000000009695505050505050565b3480156104a957600080fd5b506101936104b83660046124d7565b611096565b60007fffffffff0000000000000000000000000000000000000000000000000000000082167f150b7a0200000000000000000000000000000000000000000000000000000000148061055057507fffffffff0000000000000000000000000000000000000000000000000000000082167f4e2312e000000000000000000000000000000000000000000000000000000000145b8061059c57507fffffffff0000000000000000000000000000000000000000000000000000000082167f01ffc9a700000000000000000000000000000000000000000000000000000000145b92915050565b60025473ffffffffffffffffffffffffffffffffffffffff1615610627576040517f08c379a000000000000000000000000000000000000000000000000000000000815260206004820152600f60248201527f6f6e6c79206f776e65722069732030000000000000000000000000000000000060448201526064015b60405180910390fd5b600280547fffffffffffffffffffffffff00000000000000000000000000000000000000001673ffffffffffffffffffffffffffffffffffffffff92909216919091179055565b73ffffffffffffffffffffffffffffffffffffffff7f0000000000000000000000000000000000000000000000000000000000000000163003610733576040517f08c379a000000000000000000000000000000000000000000000000000000000815260206004820152602c60248201527f46756e6374696f6e206d7573742062652063616c6c6564207468726f7567682060448201527f64656c656761746563616c6c0000000000000000000000000000000000000000606482015260840161061e565b7f000000000000000000000000000000000000000000000000000000000000000073ffffffffffffffffffffffffffffffffffffffff166107a87f360894a13ba1a3210667c828492db98dca3e2076cc3735a920a3ca505d382bbc5473ffffffffffffffffffffffffffffffffffffffff1690565b73ffffffffffffffffffffffffffffffffffffffff161461084b576040517f08c379a000000000000000000000000000000000000000000000000000000000815260206004820152602c60248201527f46756e6374696f6e206d7573742062652063616c6c6564207468726f7567682060448201527f6163746976652070726f78790000000000000000000000000000000000000000606482015260840161061e565b61085481611229565b6040805160008082526020820190925261087091839190611231565b50565b600061087d611435565b61088784846114d6565b9050610892826115b1565b9392505050565b6108a161161c565b84811480156108b757508215806108b757508281145b61091d576040517f08c379a000000000000000000000000000000000000000000000000000000000815260206004820152601360248201527f77726f6e67206172726179206c656e6774687300000000000000000000000000604482015260640161061e565b60008390036109d35760005b858110156109cd576109bb87878381811061094657610946612520565b905060200201602081019061095b9190611fe0565b600085858581811061096f5761096f612520565b9050602002810190610981919061254f565b8080601f0160208091040260200160405190810160405280939291908181526020018383808284376000920191909152506116dd92505050565b806109c5816125b4565b915050610929565b50610a47565b60005b85811015610a4557610a338787838181106109f3576109f3612520565b9050602002016020810190610a089190611fe0565b868684818110610a1a57610a1a612520565b9050602002013585858581811061096f5761096f612520565b80610a3d816125b4565b9150506109d6565b505b505050505050565b7f00000000000000000000000000000000000000000000000000000000000000006040517fb760faf900000000000000000000000000000000000000000000000000000000815230600482015273ffffffffffffffffffffffffffffffffffffffff919091169063b760faf99034906024016000604051808303818588803b158015610ada57600080fd5b505af1158015610aee573d6000803e3d6000fd5b5050505050565b610afd61175a565b7f00000000000000000000000000000000000000000000000000000000000000006040517f205c287800000000000000000000000000000000000000000000000000000000815273ffffffffffffffffffffffffffffffffffffffff848116600483015260248201849052919091169063205c287890604401600060405180830381600087803b158015610b9057600080fd5b505af1158015610a47573d6000803e3d6000fd5b73ffffffffffffffffffffffffffffffffffffffff7f0000000000000000000000000000000000000000000000000000000000000000163003610c69576040517f08c379a000000000000000000000000000000000000000000000000000000000815260206004820152602c60248201527f46756e6374696f6e206d7573742062652063616c6c6564207468726f7567682060448201527f64656c656761746563616c6c0000000000000000000000000000000000000000606482015260840161061e565b7f000000000000000000000000000000000000000000000000000000000000000073ffffffffffffffffffffffffffffffffffffffff16610cde7f360894a13ba1a3210667c828492db98dca3e2076cc3735a920a3ca505d382bbc5473ffffffffffffffffffffffffffffffffffffffff1690565b73ffffffffffffffffffffffffffffffffffffffff1614610d81576040517f08c379a000000000000000000000000000000000000000000000000000000000815260206004820152602c60248201527f46756e6374696f6e206d7573742062652063616c6c6564207468726f7567682060448201527f6163746976652070726f78790000000000000000000000000000000000000000606482015260840161061e565b610d8a82611229565b610d9682826001611231565b5050565b60003073ffffffffffffffffffffffffffffffffffffffff7f00000000000000000000000000000000000000000000000000000000000000001614610e61576040517f08c379a000000000000000000000000000000000000000000000000000000000815260206004820152603860248201527f555550535570677261646561626c653a206d757374206e6f742062652063616c60448201527f6c6564207468726f7567682064656c656761746563616c6c0000000000000000606482015260840161061e565b507f360894a13ba1a3210667c828492db98dca3e2076cc3735a920a3ca505d382bbc90565b610e8e61161c565b610ecf848484848080601f0160208091040260200160405190810160405280939291908181526020018383808284376000920191909152506116dd92505050565b50505050565b6040517f70a0823100000000000000000000000000000000000000000000000000000000815230600482015260009073ffffffffffffffffffffffffffffffffffffffff7f000000000000000000000000000000000000000000000000000000000000000016906370a08231906024015b602060405180830381865afa158015610f63573d6000803e3d6000fd5b505050506040513d601f19601f82011682018060405250810190610f879190612613565b905090565b6040517f35567e1a0000000000000000000000000000000000000000000000000000000081523060048201526000602482018190529073ffffffffffffffffffffffffffffffffffffffff7f000000000000000000000000000000000000000000000000000000000000000016906335567e1a90604401610f46565b600180546110159061262c565b80601f01602080910402602001604051908101604052809291908181526020018280546110419061262c565b801561108e5780601f106110635761010080835404028352916020019161108e565b820191906000526020600020905b81548152906001019060200180831161107157829003601f168201915b505050505081565b600054610100900460ff16158080156110b65750600054600160ff909116105b806110d05750303b1580156110d0575060005460ff166001145b61115c576040517f08c379a000000000000000000000000000000000000000000000000000000000815260206004820152602e60248201527f496e697469616c697a61626c653a20636f6e747261637420697320616c72656160448201527f647920696e697469616c697a6564000000000000000000000000000000000000606482015260840161061e565b600080547fffffffffffffffffffffffffffffffffffffffffffffffffffffffffffffff0016600117905580156111ba57600080547fffffffffffffffffffffffffffffffffffffffffffffffffffffffffffff00ff166101001790555b6111c3826117e5565b8015610d9657600080547fffffffffffffffffffffffffffffffffffffffffffffffffffffffffffff00ff169055604051600181527f7f26b83ff96e1f2b6a682f133852f6798a09c465da95921460cefb38474024989060200160405180910390a15050565b61087061175a565b7f4910fdfa16fed3260ed0e7147f7cc6da11a60208b5b9406d12a635614ffd91435460ff1615611269576112648361186c565b505050565b8273ffffffffffffffffffffffffffffffffffffffff166352d1902d6040518163ffffffff1660e01b8152600401602060405180830381865afa9250505080156112ee575060408051601f3d9081017fffffffffffffffffffffffffffffffffffffffffffffffffffffffffffffffe01682019092526112eb91810190612613565b60015b61137a576040517f08c379a000000000000000000000000000000000000000000000000000000000815260206004820152602e60248201527f45524331393637557067726164653a206e657720696d706c656d656e7461746960448201527f6f6e206973206e6f742055555053000000000000000000000000000000000000606482015260840161061e565b7f360894a13ba1a3210667c828492db98dca3e2076cc3735a920a3ca505d382bbc8114611429576040517f08c379a000000000000000000000000000000000000000000000000000000000815260206004820152602960248201527f45524331393637557067726164653a20756e737570706f727465642070726f7860448201527f6961626c65555549440000000000000000000000000000000000000000000000606482015260840161061e565b50611264838383611976565b3373ffffffffffffffffffffffffffffffffffffffff7f000000000000000000000000000000000000000000000000000000000000000016146114d4576040517f08c379a000000000000000000000000000000000000000000000000000000000815260206004820152601c60248201527f6163636f756e743a206e6f742066726f6d20456e747279506f696e7400000000604482015260640161061e565b565b60025460009073ffffffffffffffffffffffffffffffffffffffff166114fe5750600061059c565b7f19457468657265756d205369676e6564204d6573736167653a0a3332000000006000908152601c839052603c902061157b61153e61014086018661254f565b8080601f016020809104026020016040519081016040528093929190818152602001838380828437600092019190915250859392505061199b9050565b60025473ffffffffffffffffffffffffffffffffffffffff9081169116146115a757600191505061059c565b5060009392505050565b80156108705760405160009033907fffffffffffffffffffffffffffffffffffffffffffffffffffffffffffffffff90849084818181858888f193505050503d8060008114610aee576040519150601f19603f3d011682016040523d82523d6000602084013e610aee565b3373ffffffffffffffffffffffffffffffffffffffff7f0000000000000000000000000000000000000000000000000000000000000000161480611677575060025473ffffffffffffffffffffffffffffffffffffffff1633145b6114d4576040517f08c379a000000000000000000000000000000000000000000000000000000000815260206004820181905260248201527f6163636f756e743a206e6f74204f776e6572206f7220456e747279506f696e74604482015260640161061e565b6000808473ffffffffffffffffffffffffffffffffffffffff168484604051611706919061267f565b60006040518083038185875af1925050503d8060008114611743576040519150601f19603f3d011682016040523d82523d6000602084013e611748565b606091505b509150915081610aee57805160208201fd5b60025473ffffffffffffffffffffffffffffffffffffffff1633148061177f57503330145b6114d4576040517f08c379a000000000000000000000000000000000000000000000000000000000815260206004820152600a60248201527f6f6e6c79206f776e657200000000000000000000000000000000000000000000604482015260640161061e565b60016117f182826126e1565b50600160405161180191906127fb565b6040519081900381209073ffffffffffffffffffffffffffffffffffffffff7f000000000000000000000000000000000000000000000000000000000000000016907fc27e6dee385f97256803537c89482a201cd863d49397e98ca8dde0930f3d572290600090a350565b73ffffffffffffffffffffffffffffffffffffffff81163b611910576040517f08c379a000000000000000000000000000000000000000000000000000000000815260206004820152602d60248201527f455243313936373a206e657720696d706c656d656e746174696f6e206973206e60448201527f6f74206120636f6e747261637400000000000000000000000000000000000000606482015260840161061e565b7f360894a13ba1a3210667c828492db98dca3e2076cc3735a920a3ca505d382bbc80547fffffffffffffffffffffffff00000000000000000000000000000000000000001673ffffffffffffffffffffffffffffffffffffffff92909216919091179055565b61197f836119bf565b60008251118061198c5750805b1561126457610ecf8383611a0c565b60008060006119aa8585611a31565b915091506119b781611a76565b509392505050565b6119c88161186c565b60405173ffffffffffffffffffffffffffffffffffffffff8216907fbc7cd75a20ee27fd9adebab32041f755214dbc6bffa90cc0225b39da2e5c2d3b90600090a250565b606061089283836040518060600160405280602781526020016128bf60279139611c29565b6000808251604103611a675760208301516040840151606085015160001a611a5b87828585611cae565b94509450505050611a6f565b506000905060025b9250929050565b6000816004811115611a8a57611a8a61288f565b03611a925750565b6001816004811115611aa657611aa661288f565b03611b0d576040517f08c379a000000000000000000000000000000000000000000000000000000000815260206004820152601860248201527f45434453413a20696e76616c6964207369676e61747572650000000000000000604482015260640161061e565b6002816004811115611b2157611b2161288f565b03611b88576040517f08c379a000000000000000000000000000000000000000000000000000000000815260206004820152601f60248201527f45434453413a20696e76616c6964207369676e6174757265206c656e67746800604482015260640161061e565b6003816004811115611b9c57611b9c61288f565b03610870576040517f08c379a000000000000000000000000000000000000000000000000000000000815260206004820152602260248201527f45434453413a20696e76616c6964207369676e6174757265202773272076616c60448201527f7565000000000000000000000000000000000000000000000000000000000000606482015260840161061e565b60606000808573ffffffffffffffffffffffffffffffffffffffff1685604051611c53919061267f565b600060405180830381855af49150503d8060008114611c8e576040519150601f19603f3d011682016040523d82523d6000602084013e611c93565b606091505b5091509150611ca486838387611d9d565b9695505050505050565b6000807f7fffffffffffffffffffffffffffffff5d576e7357a4501ddfe92f46681b20a0831115611ce55750600090506003611d94565b6040805160008082526020820180845289905260ff881692820192909252606081018690526080810185905260019060a0016020604051602081039080840390855afa158015611d39573d6000803e3d6000fd5b50506040517fffffffffffffffffffffffffffffffffffffffffffffffffffffffffffffffe0015191505073ffffffffffffffffffffffffffffffffffffffff8116611d8d57600060019250925050611d94565b9150600090505b94509492505050565b60608315611e33578251600003611e2c5773ffffffffffffffffffffffffffffffffffffffff85163b611e2c576040517f08c379a000000000000000000000000000000000000000000000000000000000815260206004820152601d60248201527f416464726573733a2063616c6c20746f206e6f6e2d636f6e7472616374000000604482015260640161061e565b5081611e3d565b611e3d8383611e45565b949350505050565b815115611e555781518083602001fd5b806040517f08c379a000000000000000000000000000000000000000000000000000000000815260040161061e919061241c565b73ffffffffffffffffffffffffffffffffffffffff8116811461087057600080fd5b60008083601f840112611ebd57600080fd5b50813567ffffffffffffffff811115611ed557600080fd5b602083019150836020828501011115611a6f57600080fd5b60008060008060008060008060c0898b031215611f0957600080fd5b8835611f1481611e89565b97506020890135611f2481611e89565b96506040890135611f3481611e89565b955060608901359450608089013567ffffffffffffffff80821115611f5857600080fd5b611f648c838d01611eab565b909650945060a08b0135915080821115611f7d57600080fd5b50611f8a8b828c01611eab565b999c989b5096995094979396929594505050565b600060208284031215611fb057600080fd5b81357fffffffff000000000000000000000000000000000000000000000000000000008116811461089257600080fd5b600060208284031215611ff257600080fd5b813561089281611e89565b60008060008060006080868803121561201557600080fd5b853561202081611e89565b9450602086013561203081611e89565b935060408601359250606086013567ffffffffffffffff81111561205357600080fd5b61205f88828901611eab565b969995985093965092949392505050565b60008060006060848603121561208557600080fd5b833567ffffffffffffffff81111561209c57600080fd5b840161016081870312156120af57600080fd5b95602085013595506040909401359392505050565b60008083601f8401126120d657600080fd5b50813567ffffffffffffffff8111156120ee57600080fd5b6020830191508360208260051b8501011115611a6f57600080fd5b6000806000806000806060878903121561212257600080fd5b863567ffffffffffffffff8082111561213a57600080fd5b6121468a838b016120c4565b9098509650602089013591508082111561215f57600080fd5b61216b8a838b016120c4565b9096509450604089013591508082111561218457600080fd5b5061219189828a016120c4565b979a9699509497509295939492505050565b600080604083850312156121b657600080fd5b82356121c181611e89565b946020939093013593505050565b7f4e487b7100000000000000000000000000000000000000000000000000000000600052604160045260246000fd5b600067ffffffffffffffff80841115612219576122196121cf565b604051601f85017fffffffffffffffffffffffffffffffffffffffffffffffffffffffffffffffe0908116603f0116810190828211818310171561225f5761225f6121cf565b8160405280935085815286868601111561227857600080fd5b858560208301376000602087830101525050509392505050565b600080604083850312156122a557600080fd5b82356122b081611e89565b9150602083013567ffffffffffffffff8111156122cc57600080fd5b8301601f810185136122dd57600080fd5b6122ec858235602084016121fe565b9150509250929050565b6000806000806060858703121561230c57600080fd5b843561231781611e89565b935060208501359250604085013567ffffffffffffffff81111561233a57600080fd5b61234687828801611eab565b95989497509550505050565b60008060008060008060008060a0898b03121561236e57600080fd5b883561237981611e89565b9750602089013561238981611e89565b9650604089013567ffffffffffffffff808211156123a657600080fd5b6123b28c838d016120c4565b909850965060608b01359150808211156123cb57600080fd5b6123d78c838d016120c4565b909650945060808b0135915080821115611f7d57600080fd5b60005b8381101561240b5781810151838201526020016123f3565b83811115610ecf5750506000910152565b602081526000825180602084015261243b8160408501602087016123f0565b601f017fffffffffffffffffffffffffffffffffffffffffffffffffffffffffffffffe0169190910160400192915050565b60008060008060008060a0878903121561248657600080fd5b863561249181611e89565b955060208701356124a181611e89565b94506040870135935060608701359250608087013567ffffffffffffffff8111156124cb57600080fd5b61219189828a01611eab565b6000602082840312156124e957600080fd5b813567ffffffffffffffff81111561250057600080fd5b8201601f8101841361251157600080fd5b611e3d848235602084016121fe565b7f4e487b7100000000000000000000000000000000000000000000000000000000600052603260045260246000fd5b60008083357fffffffffffffffffffffffffffffffffffffffffffffffffffffffffffffffe184360301811261258457600080fd5b83018035915067ffffffffffffffff82111561259f57600080fd5b602001915036819003821315611a6f57600080fd5b60007fffffffffffffffffffffffffffffffffffffffffffffffffffffffffffffffff820361260c577f4e487b7100000000000000000000000000000000000000000000000000000000600052601160045260246000fd5b5060010190565b60006020828403121561262557600080fd5b5051919050565b600181811c9082168061264057607f821691505b602082108103612679577f4e487b7100000000000000000000000000000000000000000000000000000000600052602260045260246000fd5b50919050565b600082516126918184602087016123f0565b9190910192915050565b601f82111561126457600081815260208120601f850160051c810160208610156126c25750805b601f850160051c820191505b81811015610a47578281556001016126ce565b815167ffffffffffffffff8111156126fb576126fb6121cf565b61270f81612709845461262c565b8461269b565b602080601f831160018114612762576000841561272c5750858301515b7fffffffffffffffffffffffffffffffffffffffffffffffffffffffffffffffff600386901b1c1916600185901b178555610a47565b6000858152602081207fffffffffffffffffffffffffffffffffffffffffffffffffffffffffffffffe08616915b828110156127af57888601518255948401946001909101908401612790565b50858210156127eb57878501517fffffffffffffffffffffffffffffffffffffffffffffffffffffffffffffffff600388901b60f8161c191681555b5050505050600190811b01905550565b60008083546128098161262c565b60018281168015612821576001811461285457612883565b7fffffffffffffffffffffffffffffffffffffffffffffffffffffffffffffff0084168752821515830287019450612883565b8760005260208060002060005b8581101561287a5781548a820152908401908201612861565b50505082870194505b50929695505050505050565b7f4e487b7100000000000000000000000000000000000000000000000000000000600052602160045260246000fdfe416464726573733a206c6f772d6c6576656c2064656c65676174652063616c6c206661696c6564a264697066735822122025bd37a1d176c8a64205bdd1d50f8d53222178c124ecbca7c06fcc5196c5c6c564736f6c634300080f0033",
  "linkReferences": {},
  "deployedLinkReferences": {}
}