{
  "_format": "hh-sol-artifact-1",
  "contractName": "TestAccount",
  "sourceName": "contracts/TestAccount.sol",
  "abi": [
    {
      "inputs": [
        {
          "internalType": "contract IEntryPoint",
          "name": "anEntryPoint",
          "type": "address"
        }
      ],
      "stateMutability": "nonpayable",
      "type": "constructor"
    },
    {
      "anonymous": false,
      "inputs": [
        {
          "indexed": false,
          "internalType": "address",
          "name": "previousAdmin",
          "type": "address"
        },
        {
          "indexed": false,
          "internalType": "address",
          "name": "newAdmin",
          "type": "address"
        }
      ],
      "name": "AdminChanged",
      "type": "event"
    },
    {
      "anonymous": false,
      "inputs": [
        {
          "indexed": true,
          "internalType": "address",
          "name": "beacon",
          "type": "address"
        }
      ],
      "name": "BeaconUpgraded",
      "type": "event"
    },
    {
      "anonymous": false,
      "inputs": [
        {
          "indexed": false,
          "internalType": "uint8",
          "name": "version",
          "type": "uint8"
        }
      ],
      "name": "Initialized",
      "type": "event"
    },
    {
      "anonymous": false,
      "inputs": [
        {
          "indexed": true,
          "internalType": "contract IEntryPoint",
          "name": "entryPoint",
          "type": "address"
        },
        {
          "indexed": true,
          "internalType": "string",
          "name": "owner",
          "type": "string"
        }
      ],
      "name": "SimpleAccountInitialized",
      "type": "event"
    },
    {
      "anonymous": false,
      "inputs": [
        {
          "indexed": true,
          "internalType": "address",
          "name": "implementation",
          "type": "address"
        }
      ],
      "name": "Upgraded",
      "type": "event"
    },
    {
      "inputs": [],
      "name": "addDeposit",
      "outputs": [],
      "stateMutability": "payable",
      "type": "function"
    },
    {
      "inputs": [],
      "name": "appConfig",
      "outputs": [
        {
          "internalType": "contract AppConfig",
          "name": "",
          "type": "address"
        }
      ],
      "stateMutability": "view",
      "type": "function"
    },
    {
      "inputs": [],
      "name": "customerNo",
      "outputs": [
        {
          "internalType": "string",
          "name": "",
          "type": "string"
        }
      ],
      "stateMutability": "view",
      "type": "function"
    },
    {
      "inputs": [],
      "name": "entryPoint",
      "outputs": [
        {
          "internalType": "contract IEntryPoint",
          "name": "",
          "type": "address"
        }
      ],
      "stateMutability": "view",
      "type": "function"
    },
    {
      "inputs": [
        {
          "internalType": "address",
          "name": "dest",
          "type": "address"
        },
        {
          "internalType": "uint256",
          "name": "value",
          "type": "uint256"
        },
        {
          "internalType": "bytes",
          "name": "func",
          "type": "bytes"
        }
      ],
      "name": "execute",
      "outputs": [],
      "stateMutability": "nonpayable",
      "type": "function"
    },
    {
      "inputs": [
        {
          "internalType": "address[]",
          "name": "dest",
          "type": "address[]"
        },
        {
          "internalType": "bytes[]",
          "name": "func",
          "type": "bytes[]"
        }
      ],
      "name": "executeBatch",
      "outputs": [],
      "stateMutability": "nonpayable",
      "type": "function"
    },
    {
      "inputs": [],
      "name": "getDeposit",
      "outputs": [
        {
          "internalType": "uint256",
          "name": "",
          "type": "uint256"
        }
      ],
      "stateMutability": "view",
      "type": "function"
    },
    {
      "inputs": [],
      "name": "getNonce",
      "outputs": [
        {
          "internalType": "uint256",
          "name": "",
          "type": "uint256"
        }
      ],
      "stateMutability": "view",
      "type": "function"
    },
    {
      "inputs": [
        {
          "internalType": "uint256[]",
          "name": "_arr",
          "type": "uint256[]"
        }
      ],
      "name": "getSum",
      "outputs": [
        {
          "internalType": "uint256",
          "name": "sum",
          "type": "uint256"
        }
      ],
      "stateMutability": "pure",
      "type": "function"
    },
    {
      "inputs": [
        {
          "internalType": "string",
          "name": "_customerNo",
          "type": "string"
        }
      ],
      "name": "initialize",
      "outputs": [],
      "stateMutability": "nonpayable",
      "type": "function"
    },
    {
      "inputs": [
        {
          "internalType": "address",
          "name": "",
          "type": "address"
        },
        {
          "internalType": "address",
          "name": "",
          "type": "address"
        },
        {
          "internalType": "uint256[]",
          "name": "",
          "type": "uint256[]"
        },
        {
          "internalType": "uint256[]",
          "name": "",
          "type": "uint256[]"
        },
        {
          "internalType": "bytes",
          "name": "",
          "type": "bytes"
        }
      ],
      "name": "onERC1155BatchReceived",
      "outputs": [
        {
          "internalType": "bytes4",
          "name": "",
          "type": "bytes4"
        }
      ],
      "stateMutability": "pure",
      "type": "function"
    },
    {
      "inputs": [
        {
          "internalType": "address",
          "name": "",
          "type": "address"
        },
        {
          "internalType": "address",
          "name": "",
          "type": "address"
        },
        {
          "internalType": "uint256",
          "name": "",
          "type": "uint256"
        },
        {
          "internalType": "uint256",
          "name": "",
          "type": "uint256"
        },
        {
          "internalType": "bytes",
          "name": "",
          "type": "bytes"
        }
      ],
      "name": "onERC1155Received",
      "outputs": [
        {
          "internalType": "bytes4",
          "name": "",
          "type": "bytes4"
        }
      ],
      "stateMutability": "pure",
      "type": "function"
    },
    {
      "inputs": [
        {
          "internalType": "address",
          "name": "",
          "type": "address"
        },
        {
          "internalType": "address",
          "name": "",
          "type": "address"
        },
        {
          "internalType": "uint256",
          "name": "",
          "type": "uint256"
        },
        {
          "internalType": "bytes",
          "name": "",
          "type": "bytes"
        }
      ],
      "name": "onERC721Received",
      "outputs": [
        {
          "internalType": "bytes4",
          "name": "",
          "type": "bytes4"
        }
      ],
      "stateMutability": "pure",
      "type": "function"
    },
    {
      "inputs": [],
      "name": "owner",
      "outputs": [
        {
          "internalType": "address",
          "name": "",
          "type": "address"
        }
      ],
      "stateMutability": "view",
      "type": "function"
    },
    {
      "inputs": [
        {
          "internalType": "address",
          "name": "_token",
          "type": "address"
        },
        {
          "internalType": "address",
          "name": "_merchantAddress",
          "type": "address"
        },
        {
          "internalType": "uint256",
          "name": "_amount",
          "type": "uint256"
        }
      ],
      "name": "pay",
      "outputs": [],
      "stateMutability": "nonpayable",
      "type": "function"
    },
    {
      "inputs": [],
      "name": "proxiableUUID",
      "outputs": [
        {
          "internalType": "bytes32",
          "name": "",
          "type": "bytes32"
        }
      ],
      "stateMutability": "view",
      "type": "function"
    },
    {
      "inputs": [
        {
          "internalType": "address",
          "name": "_appConfig",
          "type": "address"
        }
      ],
      "name": "setAppConfig",
      "outputs": [],
      "stateMutability": "nonpayable",
      "type": "function"
    },
    {
      "inputs": [
        {
          "internalType": "address",
          "name": "_owner",
          "type": "address"
        }
      ],
      "name": "setOwner",
      "outputs": [],
      "stateMutability": "nonpayable",
      "type": "function"
    },
    {
      "inputs": [
        {
          "internalType": "bytes4",
          "name": "interfaceId",
          "type": "bytes4"
        }
      ],
      "name": "supportsInterface",
      "outputs": [
        {
          "internalType": "bool",
          "name": "",
          "type": "bool"
        }
      ],
      "stateMutability": "view",
      "type": "function"
    },
    {
      "inputs": [
        {
          "internalType": "address",
          "name": "",
          "type": "address"
        },
        {
          "internalType": "address",
          "name": "",
          "type": "address"
        },
        {
          "internalType": "address",
          "name": "",
          "type": "address"
        },
        {
          "internalType": "uint256",
          "name": "",
          "type": "uint256"
        },
        {
          "internalType": "bytes",
          "name": "",
          "type": "bytes"
        },
        {
          "internalType": "bytes",
          "name": "",
          "type": "bytes"
        }
      ],
      "name": "tokensReceived",
      "outputs": [],
      "stateMutability": "pure",
      "type": "function"
    },
    {
      "inputs": [
        {
          "internalType": "address",
          "name": "newImplementation",
          "type": "address"
        }
      ],
      "name": "upgradeTo",
      "outputs": [],
      "stateMutability": "nonpayable",
      "type": "function"
    },
    {
      "inputs": [
        {
          "internalType": "address",
          "name": "newImplementation",
          "type": "address"
        },
        {
          "internalType": "bytes",
          "name": "data",
          "type": "bytes"
        }
      ],
      "name": "upgradeToAndCall",
      "outputs": [],
      "stateMutability": "payable",
      "type": "function"
    },
    {
      "inputs": [
        {
          "components": [
            {
              "internalType": "address",
              "name": "sender",
              "type": "address"
            },
            {
              "internalType": "uint256",
              "name": "nonce",
              "type": "uint256"
            },
            {
              "internalType": "bytes",
              "name": "initCode",
              "type": "bytes"
            },
            {
              "internalType": "bytes",
              "name": "callData",
              "type": "bytes"
            },
            {
              "internalType": "uint256",
              "name": "callGasLimit",
              "type": "uint256"
            },
            {
              "internalType": "uint256",
              "name": "verificationGasLimit",
              "type": "uint256"
            },
            {
              "internalType": "uint256",
              "name": "preVerificationGas",
              "type": "uint256"
            },
            {
              "internalType": "uint256",
              "name": "maxFeePerGas",
              "type": "uint256"
            },
            {
              "internalType": "uint256",
              "name": "maxPriorityFeePerGas",
              "type": "uint256"
            },
            {
              "internalType": "bytes",
              "name": "paymasterAndData",
              "type": "bytes"
            },
            {
              "internalType": "bytes",
              "name": "signature",
              "type": "bytes"
            }
          ],
          "internalType": "struct UserOperation",
          "name": "userOp",
          "type": "tuple"
        },
        {
          "internalType": "bytes32",
          "name": "userOpHash",
          "type": "bytes32"
        },
        {
          "internalType": "uint256",
          "name": "missingAccountFunds",
          "type": "uint256"
        }
      ],
      "name": "validateUserOp",
      "outputs": [
        {
          "internalType": "uint256",
          "name": "validationData",
          "type": "uint256"
        }
      ],
      "stateMutability": "nonpayable",
      "type": "function"
    },
    {
      "inputs": [
        {
          "internalType": "address payable",
          "name": "withdrawAddress",
          "type": "address"
        },
        {
          "internalType": "uint256",
          "name": "amount",
          "type": "uint256"
        }
      ],
      "name": "withdrawDepositTo",
      "outputs": [],
      "stateMutability": "nonpayable",
      "type": "function"
    },
    {
      "stateMutability": "payable",
      "type": "receive"
    }
  ],
  "bytecode": "0x60c0604052306080523480156200001557600080fd5b506040516200326538038062003265833981016040819052620000389162000117565b6001600160a01b03811660a0526200004f62000056565b5062000149565b600054610100900460ff1615620000c35760405162461bcd60e51b815260206004820152602760248201527f496e697469616c697a61626c653a20636f6e747261637420697320696e697469604482015266616c697a696e6760c81b606482015260840160405180910390fd5b60005460ff9081161462000115576000805460ff191660ff9081179091556040519081527f7f26b83ff96e1f2b6a682f133852f6798a09c465da95921460cefb38474024989060200160405180910390a15b565b6000602082840312156200012a57600080fd5b81516001600160a01b03811681146200014257600080fd5b9392505050565b60805160a0516130a9620001bc600039600081816103f801528181610a7301528181610b1a0152818161153d01528181611646015281816118ae01528181611bfa0152611e6701526000818161085d0152818161090d01528181610bde01528181610c8e0152610dd701526130a96000f3fe60806040526004361061018e5760003560e01c80638da5cb5b116100d6578063c399ec881161007f578063d3217c6b11610059578063d3217c6b146104ee578063f23a6e6114610510578063f62d18881461055657600080fd5b8063c399ec88146104a4578063ccb8c1e0146104b9578063d087d288146104d957600080fd5b8063b3d76188116100b0578063b3d761881461041c578063b61d27f61461043c578063bc197c811461045c57600080fd5b80638da5cb5b1461039c578063a5182822146103c9578063b0d691fe146103e957600080fd5b80633659cfe6116101385780634d44560d116101125780634d44560d146103545780634f1ef2861461037457806352d1902d1461038757600080fd5b80633659cfe6146102fe5780633a871cdd1461031e5780634a58db191461034c57600080fd5b8063150b7a0211610169578063150b7a021461021657806318dfb3c71461028c5780632c1fbeda146102ac57600080fd5b806223de291461019a57806301ffc9a7146101c157806313af4035146101f657600080fd5b3661019557005b600080fd5b3480156101a657600080fd5b506101bf6101b5366004612532565b5050505050505050565b005b3480156101cd57600080fd5b506101e16101dc3660046125e3565b610576565b60405190151581526020015b60405180910390f35b34801561020257600080fd5b506101bf610211366004612625565b61065b565b34801561022257600080fd5b5061025b610231366004612642565b7f150b7a020000000000000000000000000000000000000000000000000000000095945050505050565b6040517fffffffff0000000000000000000000000000000000000000000000000000000090911681526020016101ed565b34801561029857600080fd5b506101bf6102a73660046126fa565b610727565b3480156102b857600080fd5b506003546102d99073ffffffffffffffffffffffffffffffffffffffff1681565b60405173ffffffffffffffffffffffffffffffffffffffff90911681526020016101ed565b34801561030a57600080fd5b506101bf610319366004612625565b610846565b34801561032a57600080fd5b5061033e610339366004612766565b610a4b565b6040519081526020016101ed565b6101bf610a71565b34801561036057600080fd5b506101bf61036f3660046127ba565b610b10565b6101bf6103823660046128a9565b610bc7565b34801561039357600080fd5b5061033e610dbd565b3480156103a857600080fd5b506002546102d99073ffffffffffffffffffffffffffffffffffffffff1681565b3480156103d557600080fd5b506101bf6103e4366004612625565b610ea9565b3480156103f557600080fd5b507f00000000000000000000000000000000000000000000000000000000000000006102d9565b34801561042857600080fd5b506101bf61043736600461290d565b610ef8565b34801561044857600080fd5b506101bf61045736600461294e565b6114a8565b34801561046857600080fd5b5061025b61047736600461299e565b7fbc197c810000000000000000000000000000000000000000000000000000000098975050505050505050565b3480156104b057600080fd5b5061033e6114f7565b3480156104c557600080fd5b5061033e6104d4366004612a3c565b6115ae565b3480156104e557600080fd5b5061033e6115f9565b3480156104fa57600080fd5b50610503611675565b6040516101ed9190612aaa565b34801561051c57600080fd5b5061025b61052b366004612afb565b7ff23a6e61000000000000000000000000000000000000000000000000000000009695505050505050565b34801561056257600080fd5b506101bf610571366004612b77565b611703565b60007fffffffff0000000000000000000000000000000000000000000000000000000082167f150b7a0200000000000000000000000000000000000000000000000000000000148061060957507fffffffff0000000000000000000000000000000000000000000000000000000082167f4e2312e000000000000000000000000000000000000000000000000000000000145b8061065557507fffffffff0000000000000000000000000000000000000000000000000000000082167f01ffc9a700000000000000000000000000000000000000000000000000000000145b92915050565b60025473ffffffffffffffffffffffffffffffffffffffff16156106e0576040517f08c379a000000000000000000000000000000000000000000000000000000000815260206004820152600f60248201527f6f6e6c79206f776e65722069732030000000000000000000000000000000000060448201526064015b60405180910390fd5b600280547fffffffffffffffffffffffff00000000000000000000000000000000000000001673ffffffffffffffffffffffffffffffffffffffff92909216919091179055565b61072f611896565b828114610798576040517f08c379a000000000000000000000000000000000000000000000000000000000815260206004820152601360248201527f77726f6e67206172726179206c656e677468730000000000000000000000000060448201526064016106d7565b60005b8381101561083f5761082d8585838181106107b8576107b8612bc0565b90506020020160208101906107cd9190612625565b60008585858181106107e1576107e1612bc0565b90506020028101906107f39190612bef565b8080601f01602080910402602001604051908101604052809392919081815260200183838082843760009201919091525061195992505050565b8061083781612c83565b91505061079b565b5050505050565b73ffffffffffffffffffffffffffffffffffffffff7f000000000000000000000000000000000000000000000000000000000000000016300361090b576040517f08c379a000000000000000000000000000000000000000000000000000000000815260206004820152602c60248201527f46756e6374696f6e206d7573742062652063616c6c6564207468726f7567682060448201527f64656c656761746563616c6c000000000000000000000000000000000000000060648201526084016106d7565b7f000000000000000000000000000000000000000000000000000000000000000073ffffffffffffffffffffffffffffffffffffffff166109807f360894a13ba1a3210667c828492db98dca3e2076cc3735a920a3ca505d382bbc5473ffffffffffffffffffffffffffffffffffffffff1690565b73ffffffffffffffffffffffffffffffffffffffff1614610a23576040517f08c379a000000000000000000000000000000000000000000000000000000000815260206004820152602c60248201527f46756e6374696f6e206d7573742062652063616c6c6564207468726f7567682060448201527f6163746976652070726f7879000000000000000000000000000000000000000060648201526084016106d7565b610a2c816119d6565b60408051600080825260208201909252610a48918391906119de565b50565b6000610a55611be2565b610a5f8484611c81565b9050610a6a82611d34565b9392505050565b7f00000000000000000000000000000000000000000000000000000000000000006040517fb760faf900000000000000000000000000000000000000000000000000000000815230600482015273ffffffffffffffffffffffffffffffffffffffff919091169063b760faf99034906024016000604051808303818588803b158015610afc57600080fd5b505af115801561083f573d6000803e3d6000fd5b610b18611d9f565b7f00000000000000000000000000000000000000000000000000000000000000006040517f205c287800000000000000000000000000000000000000000000000000000000815273ffffffffffffffffffffffffffffffffffffffff848116600483015260248201849052919091169063205c287890604401600060405180830381600087803b158015610bab57600080fd5b505af1158015610bbf573d6000803e3d6000fd5b505050505050565b73ffffffffffffffffffffffffffffffffffffffff7f0000000000000000000000000000000000000000000000000000000000000000163003610c8c576040517f08c379a000000000000000000000000000000000000000000000000000000000815260206004820152602c60248201527f46756e6374696f6e206d7573742062652063616c6c6564207468726f7567682060448201527f64656c656761746563616c6c000000000000000000000000000000000000000060648201526084016106d7565b7f000000000000000000000000000000000000000000000000000000000000000073ffffffffffffffffffffffffffffffffffffffff16610d017f360894a13ba1a3210667c828492db98dca3e2076cc3735a920a3ca505d382bbc5473ffffffffffffffffffffffffffffffffffffffff1690565b73ffffffffffffffffffffffffffffffffffffffff1614610da4576040517f08c379a000000000000000000000000000000000000000000000000000000000815260206004820152602c60248201527f46756e6374696f6e206d7573742062652063616c6c6564207468726f7567682060448201527f6163746976652070726f7879000000000000000000000000000000000000000060648201526084016106d7565b610dad826119d6565b610db9828260016119de565b5050565b60003073ffffffffffffffffffffffffffffffffffffffff7f00000000000000000000000000000000000000000000000000000000000000001614610e84576040517f08c379a000000000000000000000000000000000000000000000000000000000815260206004820152603860248201527f555550535570677261646561626c653a206d757374206e6f742062652063616c60448201527f6c6564207468726f7567682064656c656761746563616c6c000000000000000060648201526084016106d7565b507f360894a13ba1a3210667c828492db98dca3e2076cc3735a920a3ca505d382bbc90565b610eb1611896565b600380547fffffffffffffffffffffffff00000000000000000000000000000000000000001673ffffffffffffffffffffffffffffffffffffffff92909216919091179055565b610f00611896565b60035473ffffffffffffffffffffffffffffffffffffffff16610f7f576040517f08c379a000000000000000000000000000000000000000000000000000000000815260206004820152601260248201527f617070436f6e666967206e65656420736574000000000000000000000000000060448201526064016106d7565b6003546040517f06f2791a00000000000000000000000000000000000000000000000000000000815273ffffffffffffffffffffffffffffffffffffffff848116600483015260009216906306f2791a90602401602060405180830381865afa158015610ff0573d6000803e3d6000fd5b505050506040513d601f19601f820116820180604052508101906110149190612cbb565b9050806000036110b257600360009054906101000a900473ffffffffffffffffffffffffffffffffffffffff1673ffffffffffffffffffffffffffffffffffffffff16638dbeb97d6040518163ffffffff1660e01b8152600401602060405180830381865afa15801561108b573d6000803e3d6000fd5b505050506040513d601f19601f820116820180604052508101906110af9190612cbb565b90505b6000811161111c576040517f08c379a000000000000000000000000000000000000000000000000000000000815260206004820152601f60248201527f646973636f756e74206d7573742062652067726561746572207468616e20300060448201526064016106d7565b6103e8811115611188576040517f08c379a000000000000000000000000000000000000000000000000000000000815260206004820152601f60248201527f646973636f756e74206d757374206265206c657373207468616e20313030300060448201526064016106d7565b600354604080517fdbe55e56000000000000000000000000000000000000000000000000000000008152905160009273ffffffffffffffffffffffffffffffffffffffff169163dbe55e569160048083019260209291908290030181865afa1580156111f8573d6000803e3d6000fd5b505050506040513d601f19601f8201168201806040525081019061121c9190612cd4565b905060006103e861122d8585612cf1565b6112379190612d2e565b9050600081116112c9576040517f08c379a000000000000000000000000000000000000000000000000000000000815260206004820152602560248201527f6d65726368616e74416d6f756e74206d7573742062652067726561746572207460448201527f68616e203000000000000000000000000000000000000000000000000000000060648201526084016106d7565b83811115611359576040517f08c379a000000000000000000000000000000000000000000000000000000000815260206004820152602860248201527f6d65726368616e74416d6f756e74206d757374206265206c657373207468616e60448201527f205f616d6f756e7400000000000000000000000000000000000000000000000060648201526084016106d7565b60006113658286612d69565b6040517fa9059cbb00000000000000000000000000000000000000000000000000000000815273ffffffffffffffffffffffffffffffffffffffff858116600483015260248201859052919250889182169063a9059cbb906044016020604051808303816000875af11580156113df573d6000803e3d6000fd5b505050506040513d601f19601f820116820180604052508101906114039190612d80565b506040517fa9059cbb00000000000000000000000000000000000000000000000000000000815273ffffffffffffffffffffffffffffffffffffffff88811660048301526024820184905282169063a9059cbb906044016020604051808303816000875af1158015611479573d6000803e3d6000fd5b505050506040513d601f19601f8201168201806040525081019061149d9190612d80565b505050505050505050565b6114b0611896565b6114f1848484848080601f01602080910402602001604051908101604052809392919081815260200183838082843760009201919091525061195992505050565b50505050565b6040517f70a0823100000000000000000000000000000000000000000000000000000000815230600482015260009073ffffffffffffffffffffffffffffffffffffffff7f000000000000000000000000000000000000000000000000000000000000000016906370a08231906024015b602060405180830381865afa158015611585573d6000803e3d6000fd5b505050506040513d601f19601f820116820180604052508101906115a99190612cbb565b905090565b6000805b828110156115f2578383828181106115cc576115cc612bc0565b90506020020135826115de9190612da2565b9150806115ea81612c83565b9150506115b2565b5092915050565b6040517f35567e1a0000000000000000000000000000000000000000000000000000000081523060048201526000602482018190529073ffffffffffffffffffffffffffffffffffffffff7f000000000000000000000000000000000000000000000000000000000000000016906335567e1a90604401611568565b6001805461168290612dba565b80601f01602080910402602001604051908101604052809291908181526020018280546116ae90612dba565b80156116fb5780601f106116d0576101008083540402835291602001916116fb565b820191906000526020600020905b8154815290600101906020018083116116de57829003601f168201915b505050505081565b600054610100900460ff16158080156117235750600054600160ff909116105b8061173d5750303b15801561173d575060005460ff166001145b6117c9576040517f08c379a000000000000000000000000000000000000000000000000000000000815260206004820152602e60248201527f496e697469616c697a61626c653a20636f6e747261637420697320616c72656160448201527f647920696e697469616c697a656400000000000000000000000000000000000060648201526084016106d7565b600080547fffffffffffffffffffffffffffffffffffffffffffffffffffffffffffffff00166001179055801561182757600080547fffffffffffffffffffffffffffffffffffffffffffffffffffffffffffff00ff166101001790555b61183082611e2a565b8015610db957600080547fffffffffffffffffffffffffffffffffffffffffffffffffffffffffffff00ff169055604051600181527f7f26b83ff96e1f2b6a682f133852f6798a09c465da95921460cefb38474024989060200160405180910390a15050565b3373ffffffffffffffffffffffffffffffffffffffff7f00000000000000000000000000000000000000000000000000000000000000001614806118f1575060025473ffffffffffffffffffffffffffffffffffffffff1633145b611957576040517f08c379a000000000000000000000000000000000000000000000000000000000815260206004820181905260248201527f6163636f756e743a206e6f74204f776e6572206f7220456e747279506f696e7460448201526064016106d7565b565b6000808473ffffffffffffffffffffffffffffffffffffffff1684846040516119829190612e0d565b60006040518083038185875af1925050503d80600081146119bf576040519150601f19603f3d011682016040523d82523d6000602084013e6119c4565b606091505b50915091508161083f57805160208201fd5b610a48611d9f565b7f4910fdfa16fed3260ed0e7147f7cc6da11a60208b5b9406d12a635614ffd91435460ff1615611a1657611a1183611eb1565b505050565b8273ffffffffffffffffffffffffffffffffffffffff166352d1902d6040518163ffffffff1660e01b8152600401602060405180830381865afa925050508015611a9b575060408051601f3d9081017fffffffffffffffffffffffffffffffffffffffffffffffffffffffffffffffe0168201909252611a9891810190612cbb565b60015b611b27576040517f08c379a000000000000000000000000000000000000000000000000000000000815260206004820152602e60248201527f45524331393637557067726164653a206e657720696d706c656d656e7461746960448201527f6f6e206973206e6f74205555505300000000000000000000000000000000000060648201526084016106d7565b7f360894a13ba1a3210667c828492db98dca3e2076cc3735a920a3ca505d382bbc8114611bd6576040517f08c379a000000000000000000000000000000000000000000000000000000000815260206004820152602960248201527f45524331393637557067726164653a20756e737570706f727465642070726f7860448201527f6961626c6555554944000000000000000000000000000000000000000000000060648201526084016106d7565b50611a11838383611fbb565b3373ffffffffffffffffffffffffffffffffffffffff7f00000000000000000000000000000000000000000000000000000000000000001614611957576040517f08c379a000000000000000000000000000000000000000000000000000000000815260206004820152601c60248201527f6163636f756e743a206e6f742066726f6d20456e747279506f696e740000000060448201526064016106d7565b7f19457468657265756d205369676e6564204d6573736167653a0a3332000000006000908152601c829052603c8120611cfe611cc1610140860186612bef565b8080601f0160208091040260200160405190810160405280939291908181526020018383808284376000920191909152508593925050611fe09050565b60025473ffffffffffffffffffffffffffffffffffffffff908116911614611d2a576001915050610655565b5060009392505050565b8015610a485760405160009033907fffffffffffffffffffffffffffffffffffffffffffffffffffffffffffffffff90849084818181858888f193505050503d806000811461083f576040519150601f19603f3d011682016040523d82523d6000602084013e61083f565b60025473ffffffffffffffffffffffffffffffffffffffff16331480611dc457503330145b611957576040517f08c379a000000000000000000000000000000000000000000000000000000000815260206004820152600a60248201527f6f6e6c79206f776e65720000000000000000000000000000000000000000000060448201526064016106d7565b6001611e368282612e6f565b506001604051611e469190612f89565b6040519081900381209073ffffffffffffffffffffffffffffffffffffffff7f000000000000000000000000000000000000000000000000000000000000000016907fc27e6dee385f97256803537c89482a201cd863d49397e98ca8dde0930f3d572290600090a350565b73ffffffffffffffffffffffffffffffffffffffff81163b611f55576040517f08c379a000000000000000000000000000000000000000000000000000000000815260206004820152602d60248201527f455243313936373a206e657720696d706c656d656e746174696f6e206973206e60448201527f6f74206120636f6e74726163740000000000000000000000000000000000000060648201526084016106d7565b7f360894a13ba1a3210667c828492db98dca3e2076cc3735a920a3ca505d382bbc80547fffffffffffffffffffffffff00000000000000000000000000000000000000001673ffffffffffffffffffffffffffffffffffffffff92909216919091179055565b611fc483612004565b600082511180611fd15750805b15611a11576114f18383612051565b6000806000611fef8585612076565b91509150611ffc816120bb565b509392505050565b61200d81611eb1565b60405173ffffffffffffffffffffffffffffffffffffffff8216907fbc7cd75a20ee27fd9adebab32041f755214dbc6bffa90cc0225b39da2e5c2d3b90600090a250565b6060610a6a838360405180606001604052806027815260200161304d6027913961226e565b60008082516041036120ac5760208301516040840151606085015160001a6120a0878285856122f3565b945094505050506120b4565b506000905060025b9250929050565b60008160048111156120cf576120cf61301d565b036120d75750565b60018160048111156120eb576120eb61301d565b03612152576040517f08c379a000000000000000000000000000000000000000000000000000000000815260206004820152601860248201527f45434453413a20696e76616c6964207369676e6174757265000000000000000060448201526064016106d7565b60028160048111156121665761216661301d565b036121cd576040517f08c379a000000000000000000000000000000000000000000000000000000000815260206004820152601f60248201527f45434453413a20696e76616c6964207369676e6174757265206c656e6774680060448201526064016106d7565b60038160048111156121e1576121e161301d565b03610a48576040517f08c379a000000000000000000000000000000000000000000000000000000000815260206004820152602260248201527f45434453413a20696e76616c6964207369676e6174757265202773272076616c60448201527f756500000000000000000000000000000000000000000000000000000000000060648201526084016106d7565b60606000808573ffffffffffffffffffffffffffffffffffffffff16856040516122989190612e0d565b600060405180830381855af49150503d80600081146122d3576040519150601f19603f3d011682016040523d82523d6000602084013e6122d8565b606091505b50915091506122e9868383876123e2565b9695505050505050565b6000807f7fffffffffffffffffffffffffffffff5d576e7357a4501ddfe92f46681b20a083111561232a57506000905060036123d9565b6040805160008082526020820180845289905260ff881692820192909252606081018690526080810185905260019060a0016020604051602081039080840390855afa15801561237e573d6000803e3d6000fd5b50506040517fffffffffffffffffffffffffffffffffffffffffffffffffffffffffffffffe0015191505073ffffffffffffffffffffffffffffffffffffffff81166123d2576000600192509250506123d9565b9150600090505b94509492505050565b606083156124785782516000036124715773ffffffffffffffffffffffffffffffffffffffff85163b612471576040517f08c379a000000000000000000000000000000000000000000000000000000000815260206004820152601d60248201527f416464726573733a2063616c6c20746f206e6f6e2d636f6e747261637400000060448201526064016106d7565b5081612482565b612482838361248a565b949350505050565b81511561249a5781518083602001fd5b806040517f08c379a00000000000000000000000000000000000000000000000000000000081526004016106d79190612aaa565b73ffffffffffffffffffffffffffffffffffffffff81168114610a4857600080fd5b60008083601f84011261250257600080fd5b50813567ffffffffffffffff81111561251a57600080fd5b6020830191508360208285010111156120b457600080fd5b60008060008060008060008060c0898b03121561254e57600080fd5b8835612559816124ce565b97506020890135612569816124ce565b96506040890135612579816124ce565b955060608901359450608089013567ffffffffffffffff8082111561259d57600080fd5b6125a98c838d016124f0565b909650945060a08b01359150808211156125c257600080fd5b506125cf8b828c016124f0565b999c989b5096995094979396929594505050565b6000602082840312156125f557600080fd5b81357fffffffff0000000000000000000000000000000000000000000000000000000081168114610a6a57600080fd5b60006020828403121561263757600080fd5b8135610a6a816124ce565b60008060008060006080868803121561265a57600080fd5b8535612665816124ce565b94506020860135612675816124ce565b935060408601359250606086013567ffffffffffffffff81111561269857600080fd5b6126a4888289016124f0565b969995985093965092949392505050565b60008083601f8401126126c757600080fd5b50813567ffffffffffffffff8111156126df57600080fd5b6020830191508360208260051b85010111156120b457600080fd5b6000806000806040858703121561271057600080fd5b843567ffffffffffffffff8082111561272857600080fd5b612734888389016126b5565b9096509450602087013591508082111561274d57600080fd5b5061275a878288016126b5565b95989497509550505050565b60008060006060848603121561277b57600080fd5b833567ffffffffffffffff81111561279257600080fd5b840161016081870312156127a557600080fd5b95602085013595506040909401359392505050565b600080604083850312156127cd57600080fd5b82356127d8816124ce565b946020939093013593505050565b7f4e487b7100000000000000000000000000000000000000000000000000000000600052604160045260246000fd5b600067ffffffffffffffff80841115612830576128306127e6565b604051601f85017fffffffffffffffffffffffffffffffffffffffffffffffffffffffffffffffe0908116603f01168101908282118183101715612876576128766127e6565b8160405280935085815286868601111561288f57600080fd5b858560208301376000602087830101525050509392505050565b600080604083850312156128bc57600080fd5b82356128c7816124ce565b9150602083013567ffffffffffffffff8111156128e357600080fd5b8301601f810185136128f457600080fd5b61290385823560208401612815565b9150509250929050565b60008060006060848603121561292257600080fd5b833561292d816124ce565b9250602084013561293d816124ce565b929592945050506040919091013590565b6000806000806060858703121561296457600080fd5b843561296f816124ce565b935060208501359250604085013567ffffffffffffffff81111561299257600080fd5b61275a878288016124f0565b60008060008060008060008060a0898b0312156129ba57600080fd5b88356129c5816124ce565b975060208901356129d5816124ce565b9650604089013567ffffffffffffffff808211156129f257600080fd5b6129fe8c838d016126b5565b909850965060608b0135915080821115612a1757600080fd5b612a238c838d016126b5565b909650945060808b01359150808211156125c257600080fd5b60008060208385031215612a4f57600080fd5b823567ffffffffffffffff811115612a6657600080fd5b612a72858286016126b5565b90969095509350505050565b60005b83811015612a99578181015183820152602001612a81565b838111156114f15750506000910152565b6020815260008251806020840152612ac9816040850160208701612a7e565b601f017fffffffffffffffffffffffffffffffffffffffffffffffffffffffffffffffe0169190910160400192915050565b60008060008060008060a08789031215612b1457600080fd5b8635612b1f816124ce565b95506020870135612b2f816124ce565b94506040870135935060608701359250608087013567ffffffffffffffff811115612b5957600080fd5b612b6589828a016124f0565b979a9699509497509295939492505050565b600060208284031215612b8957600080fd5b813567ffffffffffffffff811115612ba057600080fd5b8201601f81018413612bb157600080fd5b61248284823560208401612815565b7f4e487b7100000000000000000000000000000000000000000000000000000000600052603260045260246000fd5b60008083357fffffffffffffffffffffffffffffffffffffffffffffffffffffffffffffffe1843603018112612c2457600080fd5b83018035915067ffffffffffffffff821115612c3f57600080fd5b6020019150368190038213156120b457600080fd5b7f4e487b7100000000000000000000000000000000000000000000000000000000600052601160045260246000fd5b60007fffffffffffffffffffffffffffffffffffffffffffffffffffffffffffffffff8203612cb457612cb4612c54565b5060010190565b600060208284031215612ccd57600080fd5b5051919050565b600060208284031215612ce657600080fd5b8151610a6a816124ce565b6000817fffffffffffffffffffffffffffffffffffffffffffffffffffffffffffffffff0483118215151615612d2957612d29612c54565b500290565b600082612d64577f4e487b7100000000000000000000000000000000000000000000000000000000600052601260045260246000fd5b500490565b600082821015612d7b57612d7b612c54565b500390565b600060208284031215612d9257600080fd5b81518015158114610a6a57600080fd5b60008219821115612db557612db5612c54565b500190565b600181811c90821680612dce57607f821691505b602082108103612e07577f4e487b7100000000000000000000000000000000000000000000000000000000600052602260045260246000fd5b50919050565b60008251612e1f818460208701612a7e565b9190910192915050565b601f821115611a1157600081815260208120601f850160051c81016020861015612e505750805b601f850160051c820191505b81811015610bbf57828155600101612e5c565b815167ffffffffffffffff811115612e8957612e896127e6565b612e9d81612e978454612dba565b84612e29565b602080601f831160018114612ef05760008415612eba5750858301515b7fffffffffffffffffffffffffffffffffffffffffffffffffffffffffffffffff600386901b1c1916600185901b178555610bbf565b6000858152602081207fffffffffffffffffffffffffffffffffffffffffffffffffffffffffffffffe08616915b82811015612f3d57888601518255948401946001909101908401612f1e565b5085821015612f7957878501517fffffffffffffffffffffffffffffffffffffffffffffffffffffffffffffffff600388901b60f8161c191681555b5050505050600190811b01905550565b6000808354612f9781612dba565b60018281168015612faf5760018114612fe257613011565b7fffffffffffffffffffffffffffffffffffffffffffffffffffffffffffffff0084168752821515830287019450613011565b8760005260208060002060005b858110156130085781548a820152908401908201612fef565b50505082870194505b50929695505050505050565b7f4e487b7100000000000000000000000000000000000000000000000000000000600052602160045260246000fdfe416464726573733a206c6f772d6c6576656c2064656c65676174652063616c6c206661696c6564a26469706673582212207d72671584a284ed13fb6140653fa7b9cc3a042f1cf43b92257a503fa3b2c00264736f6c634300080f0033",
  "linkReferences": {},
  "deployedLinkReferences": {}
}